{
  "_format": "hh-sol-artifact-1",
  "contractName": "PublishingAgreement",
  "sourceName": "contracts/Lock.sol",
  "abi": [
    {
      "inputs": [
        {
          "internalType": "address",
          "name": "_author",
          "type": "address"
        },
        {
          "internalType": "address",
          "name": "_publisher",
          "type": "address"
        },
        {
          "internalType": "uint256",
          "name": "_duration",
          "type": "uint256"
        },
        {
          "internalType": "uint256",
          "name": "_amount",
          "type": "uint256"
        },
        {
          "internalType": "uint256",
          "name": "_authorShare",
          "type": "uint256"
        }
      ],
      "stateMutability": "payable",
      "type": "constructor"
    },
    {
      "inputs": [],
      "name": "amount",
      "outputs": [
        {
          "internalType": "uint256",
          "name": "",
          "type": "uint256"
        }
      ],
      "stateMutability": "view",
      "type": "function"
    },
    {
      "inputs": [],
      "name": "author",
      "outputs": [
        {
          "internalType": "address",
          "name": "",
          "type": "address"
        }
      ],
      "stateMutability": "view",
      "type": "function"
    },
    {
      "inputs": [],
      "name": "authorShare",
      "outputs": [
        {
          "internalType": "uint256",
          "name": "",
          "type": "uint256"
        }
      ],
      "stateMutability": "view",
      "type": "function"
    },
    {
      "inputs": [],
      "name": "endTime",
      "outputs": [
        {
          "internalType": "uint256",
          "name": "",
          "type": "uint256"
        }
      ],
      "stateMutability": "view",
      "type": "function"
    },
    {
      "inputs": [],
      "name": "isReleased",
      "outputs": [
        {
          "internalType": "bool",
          "name": "",
          "type": "bool"
        }
      ],
      "stateMutability": "view",
      "type": "function"
    },
    {
      "inputs": [],
      "name": "payAgreement",
      "outputs": [],
      "stateMutability": "payable",
      "type": "function"
    },
    {
      "inputs": [],
      "name": "publisher",
      "outputs": [
        {
          "internalType": "address",
          "name": "",
          "type": "address"
        }
      ],
      "stateMutability": "view",
      "type": "function"
    },
    {
      "inputs": [],
      "name": "releaseFunds",
      "outputs": [],
      "stateMutability": "nonpayable",
      "type": "function"
    }
  ],
  "bytecode": "0x6080604052604051610b46380380610b46833981810160405281019061002591906101c8565b6064811115610069576040517f08c379a0000000000000000000000000000000000000000000000000000000008152600401610060906102a0565b60405180910390fd5b846000806101000a81548173ffffffffffffffffffffffffffffffffffffffff021916908373ffffffffffffffffffffffffffffffffffffffff16021790555083600160006101000a81548173ffffffffffffffffffffffffffffffffffffffff021916908373ffffffffffffffffffffffffffffffffffffffff16021790555082426100f691906102ef565b60038190555081600281905550806004819055506000600560006101000a81548160ff0219169083151502179055505050505050610323565b600080fd5b600073ffffffffffffffffffffffffffffffffffffffff82169050919050565b600061015f82610134565b9050919050565b61016f81610154565b811461017a57600080fd5b50565b60008151905061018c81610166565b92915050565b6000819050919050565b6101a581610192565b81146101b057600080fd5b50565b6000815190506101c28161019c565b92915050565b600080600080600060a086880312156101e4576101e361012f565b5b60006101f28882890161017d565b95505060206102038882890161017d565b9450506040610214888289016101b3565b9350506060610225888289016101b3565b9250506080610236888289016101b3565b9150509295509295909350565b600082825260208201905092915050565b7f417574686f722073686172652063616e6e6f7420657863656564203130302500600082015250565b600061028a601f83610243565b915061029582610254565b602082019050919050565b600060208201905081810360008301526102b98161027d565b9050919050565b7f4e487b7100000000000000000000000000000000000000000000000000000000600052601160045260246000fd5b60006102fa82610192565b915061030583610192565b925082820190508082111561031d5761031c6102c0565b5b92915050565b610814806103326000396000f3fe60806040526004361061007b5760003560e01c80638c72c54e1161004e5780638c72c54e146100f7578063a6c3e6b914610122578063aa8c217c1461014d578063fa2a8997146101785761007b565b80633197cbb614610080578063544082e5146100ab57806369d89575146100d65780637e4dbff6146100ed575b600080fd5b34801561008c57600080fd5b506100956101a3565b6040516100a2919061046b565b60405180910390f35b3480156100b757600080fd5b506100c06101a9565b6040516100cd919061046b565b60405180910390f35b3480156100e257600080fd5b506100eb6101af565b005b6100f56103aa565b005b34801561010357600080fd5b5061010c6103ef565b60405161011991906104c7565b60405180910390f35b34801561012e57600080fd5b50610137610415565b60405161014491906104c7565b60405180910390f35b34801561015957600080fd5b50610162610439565b60405161016f919061046b565b60405180910390f35b34801561018457600080fd5b5061018d61043f565b60405161019a91906104fd565b60405180910390f35b60035481565b60045481565b6003544210156101f4576040517f08c379a00000000000000000000000000000000000000000000000000000000081526004016101eb90610575565b60405180910390fd5b600560009054906101000a900460ff1615610244576040517f08c379a000000000000000000000000000000000000000000000000000000000815260040161023b906105e1565b60405180910390fd5b60004711610287576040517f08c379a000000000000000000000000000000000000000000000000000000000815260040161027e9061064d565b60405180910390fd5b6001600560006101000a81548160ff021916908315150217905550600047905060006064600454836102b9919061069c565b6102c3919061070d565b9050600081836102d3919061073e565b905060008054906101000a900473ffffffffffffffffffffffffffffffffffffffff1673ffffffffffffffffffffffffffffffffffffffff166108fc839081150290604051600060405180830381858888f1935050505015801561033b573d6000803e3d6000fd5b50600160009054906101000a900473ffffffffffffffffffffffffffffffffffffffff1673ffffffffffffffffffffffffffffffffffffffff166108fc829081150290604051600060405180830381858888f193505050501580156103a4573d6000803e3d6000fd5b50505050565b600034116103ed576040517f08c379a00000000000000000000000000000000000000000000000000000000081526004016103e4906107be565b60405180910390fd5b565b600160009054906101000a900473ffffffffffffffffffffffffffffffffffffffff1681565b60008054906101000a900473ffffffffffffffffffffffffffffffffffffffff1681565b60025481565b600560009054906101000a900460ff1681565b6000819050919050565b61046581610452565b82525050565b6000602082019050610480600083018461045c565b92915050565b600073ffffffffffffffffffffffffffffffffffffffff82169050919050565b60006104b182610486565b9050919050565b6104c1816104a6565b82525050565b60006020820190506104dc60008301846104b8565b92915050565b60008115159050919050565b6104f7816104e2565b82525050565b600060208201905061051260008301846104ee565b92915050565b600082825260208201905092915050565b7f4e6f742065787069726564207965740000000000000000000000000000000000600082015250565b600061055f600f83610518565b915061056a82610529565b602082019050919050565b6000602082019050818103600083015261058e81610552565b9050919050565b7f416c72656164792072656c656173656400000000000000000000000000000000600082015250565b60006105cb601083610518565b91506105d682610595565b602082019050919050565b600060208201905081810360008301526105fa816105be565b9050919050565b7f4e6f2066756e647320746f2072656c6561736500000000000000000000000000600082015250565b6000610637601383610518565b915061064282610601565b602082019050919050565b600060208201905081810360008301526106668161062a565b9050919050565b7f4e487b7100000000000000000000000000000000000000000000000000000000600052601160045260246000fd5b60006106a782610452565b91506106b283610452565b92508282026106c081610452565b915082820484148315176106d7576106d661066d565b5b5092915050565b7f4e487b7100000000000000000000000000000000000000000000000000000000600052601260045260246000fd5b600061071882610452565b915061072383610452565b925082610733576107326106de565b5b828204905092915050565b600061074982610452565b915061075483610452565b925082820390508181111561076c5761076b61066d565b5b92915050565b7f416d6f756e742072657175697265640000000000000000000000000000000000600082015250565b60006107a8600f83610518565b91506107b382610772565b602082019050919050565b600060208201905081810360008301526107d78161079b565b905091905056fea26469706673582212206e810f9edb2765bf2dc659610f05977e47a6313be1eb15cff4aaff022a0d6fa264736f6c634300081c0033",
  "linkReferences": {},
  "deployedLinkReferences": {}
}