{
  "_format": "hh-sol-artifact-1",
  "contractName": "PublishingAgreement",
  "sourceName": "contracts/Lock.sol",
  "abi": [
    {
      "inputs": [
        {
          "internalType": "address",
          "name": "_author",
          "type": "address"
        },
        {
          "internalType": "address",
          "name": "_publisher",
          "type": "address"
        },
        {
          "internalType": "uint256",
          "name": "_duration",
          "type": "uint256"
        },
        {
          "internalType": "uint256",
          "name": "_amount",
          "type": "uint256"
        },
        {
          "internalType": "uint256",
          "name": "_authorShare",
          "type": "uint256"
        }
      ],
      "stateMutability": "payable",
      "type": "constructor"
    },
    {
      "inputs": [],
      "name": "amount",
      "outputs": [
        {
          "internalType": "uint256",
          "name": "",
          "type": "uint256"
        }
      ],
      "stateMutability": "view",
      "type": "function"
    },
    {
      "inputs": [],
      "name": "author",
      "outputs": [
        {
          "internalType": "address",
          "name": "",
          "type": "address"
        }
      ],
      "stateMutability": "view",
      "type": "function"
    },
    {
      "inputs": [],
      "name": "authorShare",
      "outputs": [
        {
          "internalType": "uint256",
          "name": "",
          "type": "uint256"
        }
      ],
      "stateMutability": "view",
      "type": "function"
    },
    {
      "inputs": [],
      "name": "buyAgreement",
      "outputs": [],
      "stateMutability": "payable",
      "type": "function"
    },
    {
      "inputs": [],
      "name": "buyer",
      "outputs": [
        {
          "internalType": "address",
          "name": "",
          "type": "address"
        }
      ],
      "stateMutability": "view",
      "type": "function"
    },
    {
      "inputs": [],
      "name": "discountPrice",
      "outputs": [
        {
          "internalType": "uint256",
          "name": "",
          "type": "uint256"
        }
      ],
      "stateMutability": "view",
      "type": "function"
    },
    {
      "inputs": [],
      "name": "endTime",
      "outputs": [
        {
          "internalType": "uint256",
          "name": "",
          "type": "uint256"
        }
      ],
      "stateMutability": "view",
      "type": "function"
    },
    {
      "inputs": [],
      "name": "isForSale",
      "outputs": [
        {
          "internalType": "bool",
          "name": "",
          "type": "bool"
        }
      ],
      "stateMutability": "view",
      "type": "function"
    },
    {
      "inputs": [],
      "name": "isReleased",
      "outputs": [
        {
          "internalType": "bool",
          "name": "",
          "type": "bool"
        }
      ],
      "stateMutability": "view",
      "type": "function"
    },
    {
      "inputs": [],
      "name": "payAgreement",
      "outputs": [],
      "stateMutability": "payable",
      "type": "function"
    },
    {
      "inputs": [],
      "name": "publisher",
      "outputs": [
        {
          "internalType": "address",
          "name": "",
          "type": "address"
        }
      ],
      "stateMutability": "view",
      "type": "function"
    },
    {
      "inputs": [],
      "name": "releaseFunds",
      "outputs": [],
      "stateMutability": "nonpayable",
      "type": "function"
    },
    {
      "inputs": [
        {
          "internalType": "uint256",
          "name": "_discountPrice",
          "type": "uint256"
        }
      ],
      "name": "sellAgreement",
      "outputs": [],
      "stateMutability": "nonpayable",
      "type": "function"
    }
  ],
  "bytecode": "0x6080604052604051611463380380611463833981810160405281019061002591906101eb565b6064811115610069576040517f08c379a0000000000000000000000000000000000000000000000000000000008152600401610060906102c3565b60405180910390fd5b846000806101000a81548173ffffffffffffffffffffffffffffffffffffffff021916908373ffffffffffffffffffffffffffffffffffffffff16021790555083600160006101000a81548173ffffffffffffffffffffffffffffffffffffffff021916908373ffffffffffffffffffffffffffffffffffffffff16021790555082426100f69190610312565b600481905550816003819055508060058190555060006006819055506000600760006101000a81548160ff0219169083151502179055506000600760016101000a81548160ff0219169083151502179055505050505050610346565b600080fd5b600073ffffffffffffffffffffffffffffffffffffffff82169050919050565b600061018282610157565b9050919050565b61019281610177565b811461019d57600080fd5b50565b6000815190506101af81610189565b92915050565b6000819050919050565b6101c8816101b5565b81146101d357600080fd5b50565b6000815190506101e5816101bf565b92915050565b600080600080600060a0868803121561020757610206610152565b5b6000610215888289016101a0565b9550506020610226888289016101a0565b9450506040610237888289016101d6565b9350506060610248888289016101d6565b9250506080610259888289016101d6565b9150509295509295909350565b600082825260208201905092915050565b7f417574686f722073686172652063616e6e6f7420657863656564203130302500600082015250565b60006102ad601f83610266565b91506102b882610277565b602082019050919050565b600060208201905081810360008301526102dc816102a0565b9050919050565b7f4e487b7100000000000000000000000000000000000000000000000000000000600052601160045260246000fd5b600061031d826101b5565b9150610328836101b5565b92508282019050808211156103405761033f6102e3565b5b92915050565b61110e806103556000396000f3fe6080604052600436106100c25760003560e01c80637150d8ae1161007f5780638c72c54e116100595780638c72c54e146101f2578063a6c3e6b91461021d578063aa8c217c14610248578063fa2a899714610273576100c2565b80637150d8ae146101925780637e4dbff6146101bd57806384ad8e8f146101c7576100c2565b806314ceb099146100c757806320b08dc2146100d15780633197cbb6146100fc578063544082e5146101275780636091a43e1461015257806369d895751461017b575b600080fd5b6100cf61029e565b005b3480156100dd57600080fd5b506100e661046d565b6040516100f39190610a15565b60405180910390f35b34801561010857600080fd5b50610111610480565b60405161011e9190610a49565b60405180910390f35b34801561013357600080fd5b5061013c610486565b6040516101499190610a49565b60405180910390f35b34801561015e57600080fd5b5061017960048036038101906101749190610a95565b61048c565b005b34801561018757600080fd5b50610190610666565b005b34801561019e57600080fd5b506101a7610926565b6040516101b49190610b03565b60405180910390f35b6101c561094c565b005b3480156101d357600080fd5b506101dc610991565b6040516101e99190610a49565b60405180910390f35b3480156101fe57600080fd5b50610207610997565b6040516102149190610b03565b60405180910390f35b34801561022957600080fd5b506102326109bd565b60405161023f9190610b03565b60405180910390f35b34801561025457600080fd5b5061025d6109e1565b60405161026a9190610a49565b60405180910390f35b34801561027f57600080fd5b506102886109e7565b6040516102959190610a15565b60405180910390f35b600760019054906101000a900460ff166102ed576040517f08c379a00000000000000000000000000000000000000000000000000000000081526004016102e490610b7b565b60405180910390fd5b600760009054906101000a900460ff161561033d576040517f08c379a000000000000000000000000000000000000000000000000000000000815260040161033490610be7565b60405180910390fd5b6006543414610381576040517f08c379a000000000000000000000000000000000000000000000000000000000815260040161037890610c53565b60405180910390fd5b60008054906101000a900473ffffffffffffffffffffffffffffffffffffffff1673ffffffffffffffffffffffffffffffffffffffff163373ffffffffffffffffffffffffffffffffffffffff160361040f576040517f08c379a000000000000000000000000000000000000000000000000000000000815260040161040690610cbf565b60405180910390fd5b33600260006101000a81548173ffffffffffffffffffffffffffffffffffffffff021916908373ffffffffffffffffffffffffffffffffffffffff1602179055506000600760016101000a81548160ff021916908315150217905550565b600760019054906101000a900460ff1681565b60045481565b60055481565b60008054906101000a900473ffffffffffffffffffffffffffffffffffffffff1673ffffffffffffffffffffffffffffffffffffffff163373ffffffffffffffffffffffffffffffffffffffff161461051a576040517f08c379a000000000000000000000000000000000000000000000000000000000815260040161051190610d2b565b60405180910390fd5b600760009054906101000a900460ff161561056a576040517f08c379a000000000000000000000000000000000000000000000000000000000815260040161056190610be7565b60405180910390fd5b600760019054906101000a900460ff16156105ba576040517f08c379a00000000000000000000000000000000000000000000000000000000081526004016105b190610d97565b60405180910390fd5b600081116105fd576040517f08c379a00000000000000000000000000000000000000000000000000000000081526004016105f490610e03565b60405180910390fd5b6003548110610641576040517f08c379a000000000000000000000000000000000000000000000000000000000815260040161063890610e6f565b60405180910390fd5b6001600760016101000a81548160ff0219169083151502179055508060068190555050565b6004544210156106ab576040517f08c379a00000000000000000000000000000000000000000000000000000000081526004016106a290610edb565b60405180910390fd5b600760009054906101000a900460ff16156106fb576040517f08c379a00000000000000000000000000000000000000000000000000000000081526004016106f290610be7565b60405180910390fd5b6000471161073e576040517f08c379a000000000000000000000000000000000000000000000000000000000815260040161073590610f47565b60405180910390fd5b6001600760006101000a81548160ff021916908315150217905550600047905060006064600554836107709190610f96565b61077a9190611007565b90506000818361078a9190611038565b9050600073ffffffffffffffffffffffffffffffffffffffff16600260009054906101000a900473ffffffffffffffffffffffffffffffffffffffff1673ffffffffffffffffffffffffffffffffffffffff161461085057600260009054906101000a900473ffffffffffffffffffffffffffffffffffffffff1673ffffffffffffffffffffffffffffffffffffffff166108fc839081150290604051600060405180830381858888f1935050505015801561084a573d6000803e3d6000fd5b506108b8565b60008054906101000a900473ffffffffffffffffffffffffffffffffffffffff1673ffffffffffffffffffffffffffffffffffffffff166108fc839081150290604051600060405180830381858888f193505050501580156108b6573d6000803e3d6000fd5b505b600160009054906101000a900473ffffffffffffffffffffffffffffffffffffffff1673ffffffffffffffffffffffffffffffffffffffff166108fc829081150290604051600060405180830381858888f19350505050158015610920573d6000803e3d6000fd5b50505050565b600260009054906101000a900473ffffffffffffffffffffffffffffffffffffffff1681565b6000341161098f576040517f08c379a0000000000000000000000000000000000000000000000000000000008152600401610986906110b8565b60405180910390fd5b565b60065481565b600160009054906101000a900473ffffffffffffffffffffffffffffffffffffffff1681565b60008054906101000a900473ffffffffffffffffffffffffffffffffffffffff1681565b60035481565b600760009054906101000a900460ff1681565b60008115159050919050565b610a0f816109fa565b82525050565b6000602082019050610a2a6000830184610a06565b92915050565b6000819050919050565b610a4381610a30565b82525050565b6000602082019050610a5e6000830184610a3a565b92915050565b600080fd5b610a7281610a30565b8114610a7d57600080fd5b50565b600081359050610a8f81610a69565b92915050565b600060208284031215610aab57610aaa610a64565b5b6000610ab984828501610a80565b91505092915050565b600073ffffffffffffffffffffffffffffffffffffffff82169050919050565b6000610aed82610ac2565b9050919050565b610afd81610ae2565b82525050565b6000602082019050610b186000830184610af4565b92915050565b600082825260208201905092915050565b7f4e6f7420666f722073616c650000000000000000000000000000000000000000600082015250565b6000610b65600c83610b1e565b9150610b7082610b2f565b602082019050919050565b60006020820190508181036000830152610b9481610b58565b9050919050565b7f416c72656164792072656c656173656400000000000000000000000000000000600082015250565b6000610bd1601083610b1e565b9150610bdc82610b9b565b602082019050919050565b60006020820190508181036000830152610c0081610bc4565b9050919050565b7f4d75737420706179206578616374207072696365000000000000000000000000600082015250565b6000610c3d601483610b1e565b9150610c4882610c07565b602082019050919050565b60006020820190508181036000830152610c6c81610c30565b9050919050565b7f417574686f722063616e6e6f7420627579000000000000000000000000000000600082015250565b6000610ca9601183610b1e565b9150610cb482610c73565b602082019050919050565b60006020820190508181036000830152610cd881610c9c565b9050919050565b7f4f6e6c7920617574686f722063616e2073656c6c000000000000000000000000600082015250565b6000610d15601483610b1e565b9150610d2082610cdf565b602082019050919050565b60006020820190508181036000830152610d4481610d08565b9050919050565b7f416c726561647920666f722073616c6500000000000000000000000000000000600082015250565b6000610d81601083610b1e565b9150610d8c82610d4b565b602082019050919050565b60006020820190508181036000830152610db081610d74565b9050919050565b7f5072696365206d757374206265203e2030000000000000000000000000000000600082015250565b6000610ded601183610b1e565b9150610df882610db7565b602082019050919050565b60006020820190508181036000830152610e1c81610de0565b9050919050565b7f5072696365206d757374206265203c20616d6f756e7400000000000000000000600082015250565b6000610e59601683610b1e565b9150610e6482610e23565b602082019050919050565b60006020820190508181036000830152610e8881610e4c565b9050919050565b7f4e6f742065787069726564207965740000000000000000000000000000000000600082015250565b6000610ec5600f83610b1e565b9150610ed082610e8f565b602082019050919050565b60006020820190508181036000830152610ef481610eb8565b9050919050565b7f4e6f2066756e6473000000000000000000000000000000000000000000000000600082015250565b6000610f31600883610b1e565b9150610f3c82610efb565b602082019050919050565b60006020820190508181036000830152610f6081610f24565b9050919050565b7f4e487b7100000000000000000000000000000000000000000000000000000000600052601160045260246000fd5b6000610fa182610a30565b9150610fac83610a30565b9250828202610fba81610a30565b91508282048414831517610fd157610fd0610f67565b5b5092915050565b7f4e487b7100000000000000000000000000000000000000000000000000000000600052601260045260246000fd5b600061101282610a30565b915061101d83610a30565b92508261102d5761102c610fd8565b5b828204905092915050565b600061104382610a30565b915061104e83610a30565b925082820390508181111561106657611065610f67565b5b92915050565b7f416d6f756e742072657175697265640000000000000000000000000000000000600082015250565b60006110a2600f83610b1e565b91506110ad8261106c565b602082019050919050565b600060208201905081810360008301526110d181611095565b905091905056fea26469706673582212205a15714f0d5ffd1917c4f35be693339b45390821cbae6ee78adc76a02011337564736f6c634300081c0033",
  "linkReferences": {},
  "deployedLinkReferences": {}
}