{
  "_format": "hh-sol-artifact-1",
  "contractName": "PublishingAgreement",
  "sourceName": "contracts/Lock.sol",
  "abi": [
    {
      "inputs": [
        {
          "internalType": "address",
          "name": "_author",
          "type": "address"
        },
        {
          "internalType": "address",
          "name": "_publisher",
          "type": "address"
        },
        {
          "internalType": "uint256",
          "name": "_duration",
          "type": "uint256"
        }
      ],
      "stateMutability": "nonpayable",
      "type": "constructor"
    },
    {
      "inputs": [],
      "name": "amount",
      "outputs": [
        {
          "internalType": "uint256",
          "name": "",
          "type": "uint256"
        }
      ],
      "stateMutability": "view",
      "type": "function"
    },
    {
      "inputs": [],
      "name": "author",
      "outputs": [
        {
          "internalType": "address",
          "name": "",
          "type": "address"
        }
      ],
      "stateMutability": "view",
      "type": "function"
    },
    {
      "inputs": [],
      "name": "endTime",
      "outputs": [
        {
          "internalType": "uint256",
          "name": "",
          "type": "uint256"
        }
      ],
      "stateMutability": "view",
      "type": "function"
    },
    {
      "inputs": [],
      "name": "isPaid",
      "outputs": [
        {
          "internalType": "bool",
          "name": "",
          "type": "bool"
        }
      ],
      "stateMutability": "view",
      "type": "function"
    },
    {
      "inputs": [],
      "name": "isReleased",
      "outputs": [
        {
          "internalType": "bool",
          "name": "",
          "type": "bool"
        }
      ],
      "stateMutability": "view",
      "type": "function"
    },
    {
      "inputs": [],
      "name": "payAgreement",
      "outputs": [],
      "stateMutability": "payable",
      "type": "function"
    },
    {
      "inputs": [],
      "name": "publisher",
      "outputs": [
        {
          "internalType": "address",
          "name": "",
          "type": "address"
        }
      ],
      "stateMutability": "view",
      "type": "function"
    },
    {
      "inputs": [],
      "name": "releaseFunds",
      "outputs": [],
      "stateMutability": "nonpayable",
      "type": "function"
    }
  ],
  "bytecode": "0x608060405234801561001057600080fd5b5060405161099438038061099483398181016040528101906100329190610166565b826000806101000a81548173ffffffffffffffffffffffffffffffffffffffff021916908373ffffffffffffffffffffffffffffffffffffffff16021790555081600160006101000a81548173ffffffffffffffffffffffffffffffffffffffff021916908373ffffffffffffffffffffffffffffffffffffffff16021790555080426100bf91906101e8565b60038190555050505061021c565b600080fd5b600073ffffffffffffffffffffffffffffffffffffffff82169050919050565b60006100fd826100d2565b9050919050565b61010d816100f2565b811461011857600080fd5b50565b60008151905061012a81610104565b92915050565b6000819050919050565b61014381610130565b811461014e57600080fd5b50565b6000815190506101608161013a565b92915050565b60008060006060848603121561017f5761017e6100cd565b5b600061018d8682870161011b565b935050602061019e8682870161011b565b92505060406101af86828701610151565b9150509250925092565b7f4e487b7100000000000000000000000000000000000000000000000000000000600052601160045260246000fd5b60006101f382610130565b91506101fe83610130565b9250828201905080821115610216576102156101b9565b5b92915050565b6107698061022b6000396000f3fe60806040526004361061007b5760003560e01c80638c72c54e1161004e5780638c72c54e146100f7578063a6c3e6b914610122578063aa8c217c1461014d578063fa2a8997146101785761007b565b8063209ebc08146100805780633197cbb6146100ab57806369d89575146100d65780637e4dbff6146100ed575b600080fd5b34801561008c57600080fd5b506100956101a3565b6040516100a2919061045b565b60405180910390f35b3480156100b757600080fd5b506100c06101b6565b6040516100cd919061048f565b60405180910390f35b3480156100e257600080fd5b506100eb6101bc565b005b6100f5610326565b005b34801561010357600080fd5b5061010c6103dd565b60405161011991906104eb565b60405180910390f35b34801561012e57600080fd5b50610137610403565b60405161014491906104eb565b60405180910390f35b34801561015957600080fd5b50610162610427565b60405161016f919061048f565b60405180910390f35b34801561018457600080fd5b5061018d61042d565b60405161019a919061045b565b60405180910390f35b600460009054906101000a900460ff1681565b60035481565b600354421015610201576040517f08c379a00000000000000000000000000000000000000000000000000000000081526004016101f890610563565b60405180910390fd5b600460009054906101000a900460ff16610250576040517f08c379a0000000000000000000000000000000000000000000000000000000008152600401610247906105cf565b60405180910390fd5b600460019054906101000a900460ff16156102a0576040517f08c379a00000000000000000000000000000000000000000000000000000000081526004016102979061063b565b60405180910390fd5b6001600460016101000a81548160ff02191690831515021790555060008054906101000a900473ffffffffffffffffffffffffffffffffffffffff1673ffffffffffffffffffffffffffffffffffffffff166108fc6002549081150290604051600060405180830381858888f19350505050158015610323573d6000803e3d6000fd5b50565b600460009054906101000a900460ff1615610376576040517f08c379a000000000000000000000000000000000000000000000000000000000815260040161036d906106a7565b60405180910390fd5b600034116103b9576040517f08c379a00000000000000000000000000000000000000000000000000000000081526004016103b090610713565b60405180910390fd5b346002819055506001600460006101000a81548160ff021916908315150217905550565b600160009054906101000a900473ffffffffffffffffffffffffffffffffffffffff1681565b60008054906101000a900473ffffffffffffffffffffffffffffffffffffffff1681565b60025481565b600460019054906101000a900460ff1681565b60008115159050919050565b61045581610440565b82525050565b6000602082019050610470600083018461044c565b92915050565b6000819050919050565b61048981610476565b82525050565b60006020820190506104a46000830184610480565b92915050565b600073ffffffffffffffffffffffffffffffffffffffff82169050919050565b60006104d5826104aa565b9050919050565b6104e5816104ca565b82525050565b600060208201905061050060008301846104dc565b92915050565b600082825260208201905092915050565b7f4e6f742065787069726564207965740000000000000000000000000000000000600082015250565b600061054d600f83610506565b915061055882610517565b602082019050919050565b6000602082019050818103600083015261057c81610540565b9050919050565b7f5061796d656e74206e6f7420646f6e6500000000000000000000000000000000600082015250565b60006105b9601083610506565b91506105c482610583565b602082019050919050565b600060208201905081810360008301526105e8816105ac565b9050919050565b7f416c72656164792072656c656173656400000000000000000000000000000000600082015250565b6000610625601083610506565b9150610630826105ef565b602082019050919050565b6000602082019050818103600083015261065481610618565b9050919050565b7f416c726561647920706169640000000000000000000000000000000000000000600082015250565b6000610691600c83610506565b915061069c8261065b565b602082019050919050565b600060208201905081810360008301526106c081610684565b9050919050565b7f416d6f756e742072657175697265640000000000000000000000000000000000600082015250565b60006106fd600f83610506565b9150610708826106c7565b602082019050919050565b6000602082019050818103600083015261072c816106f0565b905091905056fea2646970667358221220f50674d7f7eaaca199362baba828b3701f4b85574b20dc71564511c43150da8664736f6c634300081c0033",
  "linkReferences": {},
  "deployedLinkReferences": {}
}