{
  "_format": "hh-sol-artifact-1",
  "contractName": "PublishingAgreement",
  "sourceName": "contracts/Lock.sol",
  "abi": [
    {
      "inputs": [
        {
          "internalType": "address",
          "name": "_author",
          "type": "address"
        },
        {
          "internalType": "address",
          "name": "_publisher",
          "type": "address"
        },
        {
          "internalType": "uint256",
          "name": "_duration",
          "type": "uint256"
        },
        {
          "internalType": "uint256",
          "name": "_amount",
          "type": "uint256"
        }
      ],
      "stateMutability": "payable",
      "type": "constructor"
    },
    {
      "inputs": [],
      "name": "amount",
      "outputs": [
        {
          "internalType": "uint256",
          "name": "",
          "type": "uint256"
        }
      ],
      "stateMutability": "view",
      "type": "function"
    },
    {
      "inputs": [],
      "name": "author",
      "outputs": [
        {
          "internalType": "address",
          "name": "",
          "type": "address"
        }
      ],
      "stateMutability": "view",
      "type": "function"
    },
    {
      "inputs": [],
      "name": "endTime",
      "outputs": [
        {
          "internalType": "uint256",
          "name": "",
          "type": "uint256"
        }
      ],
      "stateMutability": "view",
      "type": "function"
    },
    {
      "inputs": [],
      "name": "isPaid",
      "outputs": [
        {
          "internalType": "bool",
          "name": "",
          "type": "bool"
        }
      ],
      "stateMutability": "view",
      "type": "function"
    },
    {
      "inputs": [],
      "name": "isReleased",
      "outputs": [
        {
          "internalType": "bool",
          "name": "",
          "type": "bool"
        }
      ],
      "stateMutability": "view",
      "type": "function"
    },
    {
      "inputs": [],
      "name": "pay",
      "outputs": [],
      "stateMutability": "payable",
      "type": "function"
    },
    {
      "inputs": [],
      "name": "payAgreement",
      "outputs": [],
      "stateMutability": "payable",
      "type": "function"
    },
    {
      "inputs": [],
      "name": "publisher",
      "outputs": [
        {
          "internalType": "address",
          "name": "",
          "type": "address"
        }
      ],
      "stateMutability": "view",
      "type": "function"
    },
    {
      "inputs": [],
      "name": "releaseFunds",
      "outputs": [],
      "stateMutability": "nonpayable",
      "type": "function"
    }
  ],
  "bytecode": "0x6080604052604051610a81380380610a818339818101604052810190610025919061017c565b836000806101000a81548173ffffffffffffffffffffffffffffffffffffffff021916908373ffffffffffffffffffffffffffffffffffffffff16021790555082600160006101000a81548173ffffffffffffffffffffffffffffffffffffffff021916908373ffffffffffffffffffffffffffffffffffffffff16021790555081426100b29190610212565b600381905550806002819055506001600460006101000a81548160ff02191690831515021790555050505050610246565b600080fd5b600073ffffffffffffffffffffffffffffffffffffffff82169050919050565b6000610113826100e8565b9050919050565b61012381610108565b811461012e57600080fd5b50565b6000815190506101408161011a565b92915050565b6000819050919050565b61015981610146565b811461016457600080fd5b50565b60008151905061017681610150565b92915050565b60008060008060808587031215610196576101956100e3565b5b60006101a487828801610131565b94505060206101b587828801610131565b93505060406101c687828801610167565b92505060606101d787828801610167565b91505092959194509250565b7f4e487b7100000000000000000000000000000000000000000000000000000000600052601160045260246000fd5b600061021d82610146565b915061022883610146565b92508282019050808211156102405761023f6101e3565b5b92915050565b61082c806102556000396000f3fe6080604052600436106100865760003560e01c80637e4dbff6116100595780637e4dbff6146101025780638c72c54e1461010c578063a6c3e6b914610137578063aa8c217c14610162578063fa2a89971461018d57610086565b80631b9265b81461008b578063209ebc08146100955780633197cbb6146100c057806369d89575146100eb575b600080fd5b6100936101b8565b005b3480156100a157600080fd5b506100aa610268565b6040516100b7919061051e565b60405180910390f35b3480156100cc57600080fd5b506100d561027b565b6040516100e29190610552565b60405180910390f35b3480156100f757600080fd5b50610100610281565b005b61010a6103e9565b005b34801561011857600080fd5b506101216104a0565b60405161012e91906105ae565b60405180910390f35b34801561014357600080fd5b5061014c6104c6565b60405161015991906105ae565b60405180910390f35b34801561016e57600080fd5b506101776104ea565b6040516101849190610552565b60405180910390f35b34801561019957600080fd5b506101a26104f0565b6040516101af919061051e565b60405180910390f35b600460009054906101000a900460ff1615610208576040517f08c379a00000000000000000000000000000000000000000000000000000000081526004016101ff90610626565b60405180910390fd5b6000341161024b576040517f08c379a000000000000000000000000000000000000000000000000000000000815260040161024290610692565b60405180910390fd5b6001600460006101000a81548160ff021916908315150217905550565b600460009054906101000a900460ff1681565b60035481565b6003544210156102c6576040517f08c379a00000000000000000000000000000000000000000000000000000000081526004016102bd906106fe565b60405180910390fd5b600460009054906101000a900460ff16610315576040517f08c379a000000000000000000000000000000000000000000000000000000000815260040161030c9061076a565b60405180910390fd5b600460019054906101000a900460ff1615610365576040517f08c379a000000000000000000000000000000000000000000000000000000000815260040161035c906107d6565b60405180910390fd5b6001600460016101000a81548160ff02191690831515021790555060008054906101000a900473ffffffffffffffffffffffffffffffffffffffff1673ffffffffffffffffffffffffffffffffffffffff166108fc479081150290604051600060405180830381858888f193505050501580156103e6573d6000803e3d6000fd5b50565b600460009054906101000a900460ff1615610439576040517f08c379a000000000000000000000000000000000000000000000000000000000815260040161043090610626565b60405180910390fd5b6000341161047c576040517f08c379a000000000000000000000000000000000000000000000000000000000815260040161047390610692565b60405180910390fd5b346002819055506001600460006101000a81548160ff021916908315150217905550565b600160009054906101000a900473ffffffffffffffffffffffffffffffffffffffff1681565b60008054906101000a900473ffffffffffffffffffffffffffffffffffffffff1681565b60025481565b600460019054906101000a900460ff1681565b60008115159050919050565b61051881610503565b82525050565b6000602082019050610533600083018461050f565b92915050565b6000819050919050565b61054c81610539565b82525050565b60006020820190506105676000830184610543565b92915050565b600073ffffffffffffffffffffffffffffffffffffffff82169050919050565b60006105988261056d565b9050919050565b6105a88161058d565b82525050565b60006020820190506105c3600083018461059f565b92915050565b600082825260208201905092915050565b7f416c726561647920706169640000000000000000000000000000000000000000600082015250565b6000610610600c836105c9565b915061061b826105da565b602082019050919050565b6000602082019050818103600083015261063f81610603565b9050919050565b7f416d6f756e742072657175697265640000000000000000000000000000000000600082015250565b600061067c600f836105c9565b915061068782610646565b602082019050919050565b600060208201905081810360008301526106ab8161066f565b9050919050565b7f4e6f742065787069726564207965740000000000000000000000000000000000600082015250565b60006106e8600f836105c9565b91506106f3826106b2565b602082019050919050565b60006020820190508181036000830152610717816106db565b9050919050565b7f5061796d656e74206e6f7420646f6e6500000000000000000000000000000000600082015250565b60006107546010836105c9565b915061075f8261071e565b602082019050919050565b6000602082019050818103600083015261078381610747565b9050919050565b7f416c72656164792072656c656173656400000000000000000000000000000000600082015250565b60006107c06010836105c9565b91506107cb8261078a565b602082019050919050565b600060208201905081810360008301526107ef816107b3565b905091905056fea2646970667358221220fe99f23113bccc1e7f4d5b264d4e574b6b3468113860832a90357f53f4eed41364736f6c634300081c0033",
  "linkReferences": {},
  "deployedLinkReferences": {}
}